:100000000C9456000C9475000C9475000C947500BB
:100010000C9475000C9475000C9475000C9475008C
:100020000C9475000C9475000C9475000C9475007C
:100030000C9475000C9475000C9475000C9475006C
:100040000C9475000C9475000C9475000C9475005C
:100050000C9475000C9475000C9475000C9475004C
:100060000C9475000C9475000C9475000C9475003C
:100070000C9475000C9475000C9475000C9475002C
:100080000C9475000C9475000C947500C800D70092
:10009000E800F9000A011B012C013D01630169011F
:1000A0006E0174017A01800186018C0111241FBE4A
:1000B000CFEFD0E4DEBFCDBF11E0A0E0B1E0EEECC9
:1000C000F3E000E00BBF02C007900D92AE30B10725
:1000D000D9F721E0AEE0B1E001C01D92A031B20736
:1000E000E1F70E9497010C94E5010C940000CF9376
:1000F000DF9300D01F92CDB7DEB789837B836A83FD
:1001000089818A3031F48A819B81BC018DE00E9413
:10011000770080EC90E0FC018081882F90E0807275
:100120009927892BB1F386EC90E02981FC0120838B
:1001300080E090E00F900F900F90DF91CF910895A5
:10014000CF93DF931F92CDB7DEB780E290E0FC0142
:100150008081882F90E08170992721E0892B09F018
:1001600020E0298380910E0190910F01CC01A0E045
:10017000B0E040E050E027E030E0841B950B28170A
:10018000390708F48BC08A5B9F4FFC010C94DC019B
:100190008981813039F481E090E090930F01809360
:1001A0000E017CC010920F0110920E0177C0898160
:1001B000813039F482E090E090930F0180930E013A
:1001C0006DC081E090E090930F0180930E0166C0B6
:1001D0008981813039F483E090E090930F0180931E
:1001E0000E015CC082E090E090930F0180930E01BD
:1001F00055C08981813039F484E090E090930F01FB
:1002000080930E014BC083E090E090930F018093A8
:100210000E0144C08981813039F485E090E09093EB
:100220000F0180930E013AC084E090E090930F019B
:1002300080930E0133C08981813039F486E090E0EB
:1002400090930F0180930E0129C085E090E0909378
:100250000F0180930E0122C08981813039F487E03B
:1002600090E090930F0180930E0118C086E090E01B
:1002700090930F0180930E0111C08981813039F470
:1002800081E090E090930F0180930E0106C087E01B
:1002900090E090930F0180930E01000080910E0179
:1002A00090910F01CC01A0E0B0E040E050E027E0E9
:1002B00030E0841B950B28173907A0F1825B9F4F14
:1002C000FC010C94DC0188E290E02FEFFC0120831C
:1002D00029C088E290E0FC01108224C088E290E00E
:1002E00021E0FC0120831EC088E290E023E0FC01B5
:1002F000208318C088E290E027E0FC01208312C030
:1003000088E290E02FE0FC0120830CC088E290E0BE
:100310002FE1FC01208306C088E290E02FE3FC017E
:100320002083000000000F90DF91CF910895CF93BC
:10033000DF9300D0CDB7DEB781E290E0FC01108200
:1003400082E290E02FEFFC01208384E290E02FEF27
:10035000FC01208385E290E0FC01108287E290E0BE
:100360002FEFFC01208388E290E0FC0110821092C4
:100370000F0110920E0188E290E0FC0110821982B8
:1003800080E290E0FC018081882F90E081709927C5
:1003900021E0892B09F020E02A838A81813039F419
:1003A0008981813021F081E089830E94A0008A81C7
:1003B000882331F71982E4CFEE0FFF1F0024001CC1
:0E03C0000BBE0790F691E02D0994F894FFCF44
:0E03CE000000000200000000770000000000A8
:00000001FF
