:100000000C9454000C9473000C9473000C947300C3
:100010000C9473000C9473000C9473000C94730094
:100020000C9473000C9473000C9473000C94730084
:100030000C9473000C9473000C9473000C94730074
:100040000C9473000C9473000C9473000C94730064
:100050000C9473000C9473000C9473000C94730054
:100060000C9473000C9473000C9473000C94730044
:100070000C9473000C9473000C9473000C94730034
:100080000C9473000C9473000C947300C400EB0088
:10009000F2001B01440152014B0199019F01DC0157
:1000A000E101E6010E02130211241FBECFEFD0E4DE
:1000B000DEBFCDBF11E0A0E0B1E0E6EDF4E000E08E
:1000C0000BBF02C007900D92AE30B107D9F721E007
:1000D000AEE0B1E001C01D92A131B207E1F70E948C
:1000E00024020C9469020C940000CF93DF9300D09B
:1000F0001F92CDB7DEB789837B836A8389818A307B
:1001000031F48A819B81BC018DE00E94750080ECF6
:1001100090E0FC018081882F90E080729927892BE4
:10012000B1F386EC90E02981FC01208380E090E02F
:100130000F900F900F90DF91CF910895CF93DF93A1
:10014000CDB7DEB781E080930E010000DF91CF9143
:100150000895CF93DF931F92CDB7DEB780910F0143
:1001600090911001CC01A0E0B0E040E050E026E02A
:1001700030E0841B950B2817390708F4BBC08A5B55
:100180009F4FFC010C9460028981882329F410920E
:10019000100110920F01B0C08981813039F481E0E3
:1001A00090E09093100180930F01A6C08981823066
:1001B00039F484E090E09093100180930F019CC08B
:1001C0008981833009F098C086E090E09093100117
:1001D00080930F0191C082E090E090931001809392
:1001E0000F0191C08981813039F481E090E09093D2
:1001F000100180930F0182C08981823039F484E03C
:1002000090E09093100180930F0178C08981833032
:1002100039F486E090E09093100180930F016EC056
:100220008981882309F06AC082E090E090931001F0
:1002300080930F0163C08981882339F483E090E0C3
:100240009093100180930F015BC08981813039F454
:1002500081E090E09093100180930F0151C089815B
:10026000823039F484E090E09093100180930F0184
:1002700047C08981833009F043C086E090E09093C5
:10028000100180930F013CC083E090E09093100137
:1002900080930F0138C085E090E090931001809327
:1002A0000F0131C08981882339F485E090E0909373
:1002B000100180930F0126C08981813039F481E0DB
:1002C00090E09093100180930F011CC089818230CF
:1002D00039F484E090E09093100180930F0112C0F4
:1002E0008981833079F486E090E0909310018093C7
:1002F0000F0108C0000007C0000005C0000003C0D7
:10030000000001C0000080910F0190911001CC010C
:10031000A0E0B0E040E050E026E030E0841B950B28
:100320002817390708F488C0835B9F4FFC010C94A1
:10033000600288E290E027E0FC01208380C088E230
:1003400090E0FC0180818930A1F080E290E0FC0126
:100350008081833071F088E290E028E230E0F9019A
:1003600020812F5FFC01208385E290E0FC01108258
:1003700013C088E290E0FC018081893069F088E256
:1003800090E028E230E0F90120812F5FFC0120831A
:1003900085E290E0FC01108280E290E0FC01808127
:1003A000833009F04BC088E290E0FC01108285E2C6
:1003B00090E0FC01108242C085E290E0FC011082D6
:1003C0003EC085E290E0FC01108239C088E290E0F6
:1003D000FC018081882329F485E290E0FC011082F1
:1003E0002EC080E290E0FC018081833049F485E2F8
:1003F00090E0FC01108288E290E0FC0110821FC0B6
:1004000085E290E0FC01108288E290E028E230E092
:10041000F90120812150FC01208311C085E290E088
:10042000FC0110820CC085E290E0FC01108288E2A1
:1004300090E0FC01108203C0000001C00000000039
:100440000F90DF91CF910895CF93DF93CDB7DEB7B3
:1004500081E290E0FC01108282E290E02FEFFC014B
:10046000208384E290E02FEFFC01208385E290E07E
:10047000FC01108287E290E02FEFFC01208388E2EC
:1004800090E0FC0110821092100110920F0188E29E
:1004900090E027E0FC01208385E290E021E0FC0170
:1004A00020830E94A90080E290E0FC018081882FD7
:1004B00090E00296B1F785E290E0FC011082F1CF66
:1004C000EE0FFF1F0024001C0BBE0790F691E02DDD
:0604D0000994F894FFCF2F
:0E04D6000000000200000000750000000000A1
:00000001FF
