:100000000C9454000C9473000C9473000C947300C3
:100010000C9473000C9473000C9473000C94730094
:100020000C9473000C9473000C9473000C94730084
:100030000C9473000C94EC000C9473000C947300FB
:100040000C9473000C9473000C9473000C94730064
:100050000C9473000C9473000C9473000C94730054
:100060000C9473000C9473000C9473000C94730044
:100070000C9473000C9473000C9473000C94730034
:100080000C9473000C9473000C9473009701BE01E0
:10009000C501EE01170225021E026C027202AF02B8
:1000A000B402B902E102E60211241FBECFEFD0E490
:1000B000DEBFCDBF11E0A0E0B1E0E0E1F7E000E09D
:1000C0000BBF02C007900D92A231B107D9F721E012
:1000D000A2E1B1E001C01D92A931B207E1F70E948F
:1000E000F7020C9486030C940000CF93DF9300D0AA
:1000F0001F92CDB7DEB789837B836A8389818A307B
:1001000031F48A819B81BC018DE00E94750080ECF6
:1001100090E0FC018081882F90E080729927892BE4
:10012000B1F386EC90E02981FC01208380E090E02F
:100130000F900F900F90DF91CF910895CF93DF93A1
:10014000CDB7DEB781E890E02BE0FC01208388E8A2
:1001500090E02DE730E0FC01318320838FE690E0D2
:1001600022E0FC01208384E890E0FC0111821082EF
:1001700080910E0190910F01A0911001B091110199
:100180008093130190931401A0931501B09316016D
:100190008FE590E02FE530E0F90120812068FC0137
:1001A00020830000DF91CF910895CF93DF93CDB7E7
:1001B000DEB781E890E0FC0110820000DF91CF9172
:1001C0000895CF93DF93CDB7DEB781E0809312011E
:1001D0000000DF91CF9108951F920F9200905F0071
:1001E0000F92112400905B000F922F933F934F9337
:1001F0005F936F937F938F939F93AF93BF93EF938F
:10020000FF93CF93DF93CDB7DEB780911301909129
:100210001401A0911501B09116010197A109B1092E
:100220008093130190931401A0931501B0931601CC
:100230008091130190911401A0911501B0911601C4
:10024000892B8A2B8B2B91F40E94E10080910E0167
:1002500090910F01A0911001B091110180931301B1
:1002600090931401A0931501B09316010000DF9143
:10027000CF91FF91EF91BF91AF919F918F917F911E
:100280006F915F914F913F912F910F9000925B0082
:100290000F9000925F000F901F901895CF93DF93FF
:1002A00000D000D0CDB7DEB769837A838B839C837F
:1002B00089819A81AB81BC8180930E0190930F015B
:1002C000A0931001B093110180910E0190910F0144
:1002D000A0911001B091110180931301909314012A
:1002E000A0931501B093160100000F900F900F908E
:1002F0000F90DF91CF910895CF93DF931F92CDB7E9
:10030000DEB78091170190911801CC01A0E0B0E018
:1003100040E050E026E030E0841B950B28173907B9
:1003200008F4BBC08A5B9F4FFC010C947D0389815C
:10033000882329F41092180110921701B0C0898106
:10034000813039F481E090E0909318018093170197
:10035000A6C08981823039F484E090E0909318013E
:10036000809317019CC08981833009F098C086E092
:1003700090E0909318018093170191C082E090E083
:10038000909318018093170191C08981813039F4CD
:1003900081E090E0909318018093170182C08981D9
:1003A000823039F484E090E0909318018093170133
:1003B00078C08981833039F486E090E09093180109
:1003C000809317016EC08981882309F06AC082E09A
:1003D00090E0909318018093170163C0898188236E
:1003E00039F483E090E090931801809317015BC08B
:1003F0008981813039F481E090E0909318018093F5
:10040000170151C08981823039F484E090E09093E3
:1004100018018093170147C08981833009F043C0D8
:1004200086E090E090931801809317013CC083E030
:1004300090E0909318018093170138C085E090E018
:10044000909318018093170131C08981882339F472
:1004500085E090E0909318018093170126C0898170
:10046000813039F481E090E0909318018093170176
:100470001CC08981823039F484E090E090931801A7
:100480008093170112C08981833079F486E090E06F
:10049000909318018093170108C0000007C0000066
:1004A00005C0000003C0000001C0000080911701DA
:1004B00090911801CC01A0E0B0E040E050E026E0CF
:1004C00030E0841B950B2817390708F488C0835B3C
:1004D0009F4FFC010C947D0388E290E027E0FC0133
:1004E000208380C088E290E0FC0180818930A1F007
:1004F00080E290E0FC018081833071F088E290E03E
:1005000028E230E0F90120812F5FFC01208385E2A1
:1005100090E0FC01108213C088E290E0FC01808131
:10052000893069F088E290E028E230E0F90120812A
:100530002F5FFC01208385E290E0FC01108280E2C5
:1005400090E0FC018081833009F04BC088E290E0AC
:10055000FC01108285E290E0FC01108242C085E23D
:1005600090E0FC0110823EC085E290E0FC01108228
:1005700039C088E290E0FC018081882329F485E27B
:1005800090E0FC0110822EC080E290E0FC018081AE
:10059000833049F485E290E0FC01108288E290E02B
:1005A000FC0110821FC085E290E0FC01108288E20D
:1005B00090E028E230E0F90120812150FC01208305
:1005C00011C085E290E0FC0110820CC085E290E051
:1005D000FC01108288E290E0FC01108203C0000060
:1005E00001C0000000000F90DF91CF910895CF93DC
:1005F000DF9300D01F92CDB7DEB781E290E0FC011F
:10060000108282E290E02FEFFC01208384E290E0F0
:100610002FEFFC01208385E290E0FC01108287E24D
:1006200090E02FEFFC01208388E290E0FC01108233
:10063000109218011092170188E290E027E0FC0167
:10064000208364E670E080E090E00E944E010E940A
:100650009E0019821A8280E290E0FC0180818095E0
:1006600083708B838B81882319F419821A823DC091
:100670008B818130B1F48981813099F081E0898367
:100680001A8288E290E0FC018081893070F588E26E
:1006900090E028E230E0F90120812F5FFC01208307
:1006A00024C08B818230B1F48A81813099F081E05D
:1006B0008A83198288E290E0FC0180818823A9F076
:1006C00088E290E028E230E0F90120812150FC012D
:1006D00020830BC08B81833041F481E08A8381E0E9
:1006E000898388E290E0FC01108200008091120171
:1006F0008823E1F310921201AECFEE0FFF1F00240A
:10070000001C0BBE0790F691E02D0994F894FFCFE2
:100710000000000200000000750000000000010061
:020720000000D7
:00000001FF
